{
    "_format": "hh-sol-artifact-1",
    "contractName": "CrakdTournament",
    "sourceName": "contracts/CrakdTournament.sol",
    "abi": [
        {
            "inputs": [
                {
                    "internalType": "address",
                    "name": "_adminAddress",
                    "type": "address"
                },
                {
                    "internalType": "address",
                    "name": "_operatorAddress",
                    "type": "address"
                },
                {
                    "internalType": "uint256",
                    "name": "_treasuryFee",
                    "type": "uint256"
                }
            ],
            "stateMutability": "nonpayable",
            "type": "constructor"
        },
        {
            "anonymous": false,
            "inputs": [
                {
                    "indexed": true,
                    "internalType": "address",
                    "name": "sender",
                    "type": "address"
                },
                {
                    "indexed": true,
                    "internalType": "uint256",
                    "name": "epoch",
                    "type": "uint256"
                },
                {
                    "indexed": false,
                    "internalType": "uint256",
                    "name": "amount",
                    "type": "uint256"
                }
            ],
            "name": "Claim",
            "type": "event"
        },
        {
            "anonymous": false,
            "inputs": [
                {
                    "indexed": true,
                    "internalType": "uint256",
                    "name": "epoch",
                    "type": "uint256"
                },
                {
                    "indexed": true,
                    "internalType": "uint256",
                    "name": "tournamentId",
                    "type": "uint256"
                }
            ],
            "name": "EndTournament",
            "type": "event"
        },
        {
            "anonymous": false,
            "inputs": [
                {
                    "indexed": true,
                    "internalType": "uint256",
                    "name": "epoch",
                    "type": "uint256"
                },
                {
                    "indexed": true,
                    "internalType": "uint256",
                    "name": "tournamentId",
                    "type": "uint256"
                }
            ],
            "name": "LockTournament",
            "type": "event"
        },
        {
            "anonymous": false,
            "inputs": [
                {
                    "indexed": false,
                    "internalType": "address",
                    "name": "admin",
                    "type": "address"
                }
            ],
            "name": "NewAdminAddress",
            "type": "event"
        },
        {
            "anonymous": false,
            "inputs": [
                {
                    "indexed": true,
                    "internalType": "uint256",
                    "name": "epoch",
                    "type": "uint256"
                },
                {
                    "indexed": false,
                    "internalType": "uint256",
                    "name": "minBetAmount",
                    "type": "uint256"
                }
            ],
            "name": "NewEntryFeeAmount",
            "type": "event"
        },
        {
            "anonymous": false,
            "inputs": [
                {
                    "indexed": false,
                    "internalType": "address",
                    "name": "operator",
                    "type": "address"
                }
            ],
            "name": "NewOperatorAddress",
            "type": "event"
        },
        {
            "anonymous": false,
            "inputs": [
                {
                    "indexed": true,
                    "internalType": "uint256",
                    "name": "epoch",
                    "type": "uint256"
                },
                {
                    "indexed": false,
                    "internalType": "uint256",
                    "name": "treasuryFee",
                    "type": "uint256"
                }
            ],
            "name": "NewTreasuryFee",
            "type": "event"
        },
        {
            "anonymous": false,
            "inputs": [
                {
                    "indexed": true,
                    "internalType": "address",
                    "name": "previousOwner",
                    "type": "address"
                },
                {
                    "indexed": true,
                    "internalType": "address",
                    "name": "newOwner",
                    "type": "address"
                }
            ],
            "name": "OwnershipTransferred",
            "type": "event"
        },
        {
            "anonymous": false,
            "inputs": [
                {
                    "indexed": true,
                    "internalType": "uint256",
                    "name": "epoch",
                    "type": "uint256"
                }
            ],
            "name": "Pause",
            "type": "event"
        },
        {
            "anonymous": false,
            "inputs": [
                {
                    "indexed": false,
                    "internalType": "address",
                    "name": "account",
                    "type": "address"
                }
            ],
            "name": "Paused",
            "type": "event"
        },
        {
            "anonymous": false,
            "inputs": [
                {
                    "indexed": true,
                    "internalType": "uint256",
                    "name": "epoch",
                    "type": "uint256"
                },
                {
                    "indexed": false,
                    "internalType": "uint256",
                    "name": "rewardBaseCalAmount",
                    "type": "uint256"
                },
                {
                    "indexed": false,
                    "internalType": "uint256",
                    "name": "rewardAmount",
                    "type": "uint256"
                },
                {
                    "indexed": false,
                    "internalType": "uint256",
                    "name": "treasuryAmount",
                    "type": "uint256"
                }
            ],
            "name": "RewardsCalculated",
            "type": "event"
        },
        {
            "anonymous": false,
            "inputs": [
                {
                    "indexed": true,
                    "internalType": "address",
                    "name": "token",
                    "type": "address"
                },
                {
                    "indexed": false,
                    "internalType": "uint256",
                    "name": "amount",
                    "type": "uint256"
                }
            ],
            "name": "TokenRecovery",
            "type": "event"
        },
        {
            "anonymous": false,
            "inputs": [
                {
                    "indexed": true,
                    "internalType": "address",
                    "name": "sender",
                    "type": "address"
                },
                {
                    "indexed": true,
                    "internalType": "uint256",
                    "name": "epoch",
                    "type": "uint256"
                },
                {
                    "indexed": false,
                    "internalType": "uint256",
                    "name": "amount",
                    "type": "uint256"
                }
            ],
            "name": "TournamentEntered",
            "type": "event"
        },
        {
            "anonymous": false,
            "inputs": [
                {
                    "indexed": true,
                    "internalType": "uint256",
                    "name": "epoch",
                    "type": "uint256"
                }
            ],
            "name": "TournamentOpened",
            "type": "event"
        },
        {
            "anonymous": false,
            "inputs": [
                {
                    "indexed": true,
                    "internalType": "uint256",
                    "name": "epoch",
                    "type": "uint256"
                }
            ],
            "name": "TournamentStarted",
            "type": "event"
        },
        {
            "anonymous": false,
            "inputs": [
                {
                    "indexed": false,
                    "internalType": "uint256",
                    "name": "amount",
                    "type": "uint256"
                }
            ],
            "name": "TreasuryClaimed",
            "type": "event"
        },
        {
            "anonymous": false,
            "inputs": [
                {
                    "indexed": true,
                    "internalType": "uint256",
                    "name": "epoch",
                    "type": "uint256"
                }
            ],
            "name": "Unpause",
            "type": "event"
        },
        {
            "anonymous": false,
            "inputs": [
                {
                    "indexed": false,
                    "internalType": "address",
                    "name": "account",
                    "type": "address"
                }
            ],
            "name": "Unpaused",
            "type": "event"
        },
        {
            "inputs": [],
            "name": "MAX_TREASURY_FEE",
            "outputs": [
                {
                    "internalType": "uint256",
                    "name": "",
                    "type": "uint256"
                }
            ],
            "stateMutability": "view",
            "type": "function"
        },
        {
            "inputs": [],
            "name": "adminAddress",
            "outputs": [
                {
                    "internalType": "address",
                    "name": "",
                    "type": "address"
                }
            ],
            "stateMutability": "view",
            "type": "function"
        },
        {
            "inputs": [
                {
                    "internalType": "uint256",
                    "name": "epoch",
                    "type": "uint256"
                }
            ],
            "name": "claim",
            "outputs": [],
            "stateMutability": "nonpayable",
            "type": "function"
        },
        {
            "inputs": [],
            "name": "claimTreasury",
            "outputs": [],
            "stateMutability": "nonpayable",
            "type": "function"
        },
        {
            "inputs": [],
            "name": "currentEpoch",
            "outputs": [
                {
                    "internalType": "uint256",
                    "name": "",
                    "type": "uint256"
                }
            ],
            "stateMutability": "view",
            "type": "function"
        },
        {
            "inputs": [
                {
                    "internalType": "uint256",
                    "name": "epoch",
                    "type": "uint256"
                }
            ],
            "name": "endTournament",
            "outputs": [],
            "stateMutability": "nonpayable",
            "type": "function"
        },
        {
            "inputs": [
                {
                    "internalType": "uint256",
                    "name": "epoch",
                    "type": "uint256"
                },
                {
                    "internalType": "string",
                    "name": "gamertag",
                    "type": "string"
                }
            ],
            "name": "enterTournament",
            "outputs": [],
            "stateMutability": "payable",
            "type": "function"
        },
        {
            "inputs": [
                {
                    "internalType": "uint256",
                    "name": "",
                    "type": "uint256"
                },
                {
                    "internalType": "uint256",
                    "name": "",
                    "type": "uint256"
                }
            ],
            "name": "entrantDb",
            "outputs": [
                {
                    "internalType": "address",
                    "name": "",
                    "type": "address"
                }
            ],
            "stateMutability": "view",
            "type": "function"
        },
        {
            "inputs": [],
            "name": "entryFee",
            "outputs": [
                {
                    "internalType": "uint256",
                    "name": "",
                    "type": "uint256"
                }
            ],
            "stateMutability": "view",
            "type": "function"
        },
        {
            "inputs": [
                {
                    "internalType": "uint256",
                    "name": "",
                    "type": "uint256"
                },
                {
                    "internalType": "uint256",
                    "name": "",
                    "type": "uint256"
                }
            ],
            "name": "gamertagDb",
            "outputs": [
                {
                    "internalType": "string",
                    "name": "",
                    "type": "string"
                }
            ],
            "stateMutability": "view",
            "type": "function"
        },
        {
            "inputs": [
                {
                    "internalType": "uint256",
                    "name": "epoch",
                    "type": "uint256"
                }
            ],
            "name": "getEntrants",
            "outputs": [
                {
                    "internalType": "string[]",
                    "name": "",
                    "type": "string[]"
                }
            ],
            "stateMutability": "view",
            "type": "function"
        },
        {
            "inputs": [
                {
                    "internalType": "uint256",
                    "name": "",
                    "type": "uint256"
                },
                {
                    "internalType": "address",
                    "name": "",
                    "type": "address"
                }
            ],
            "name": "ledger",
            "outputs": [
                {
                    "internalType": "enum CrakdTournament.Entry",
                    "name": "entry",
                    "type": "uint8"
                },
                {
                    "internalType": "string",
                    "name": "gamertag",
                    "type": "string"
                },
                {
                    "internalType": "uint256",
                    "name": "amount",
                    "type": "uint256"
                },
                {
                    "internalType": "uint256",
                    "name": "pointsEarned",
                    "type": "uint256"
                },
                {
                    "internalType": "bool",
                    "name": "claimed",
                    "type": "bool"
                },
                {
                    "internalType": "bool",
                    "name": "result",
                    "type": "bool"
                }
            ],
            "stateMutability": "view",
            "type": "function"
        },
        {
            "inputs": [],
            "name": "maxEntrants",
            "outputs": [
                {
                    "internalType": "uint256",
                    "name": "",
                    "type": "uint256"
                }
            ],
            "stateMutability": "view",
            "type": "function"
        },
        {
            "inputs": [],
            "name": "openTournament",
            "outputs": [],
            "stateMutability": "nonpayable",
            "type": "function"
        },
        {
            "inputs": [],
            "name": "operatorAddress",
            "outputs": [
                {
                    "internalType": "address",
                    "name": "",
                    "type": "address"
                }
            ],
            "stateMutability": "view",
            "type": "function"
        },
        {
            "inputs": [],
            "name": "owner",
            "outputs": [
                {
                    "internalType": "address",
                    "name": "",
                    "type": "address"
                }
            ],
            "stateMutability": "view",
            "type": "function"
        },
        {
            "inputs": [],
            "name": "pause",
            "outputs": [],
            "stateMutability": "nonpayable",
            "type": "function"
        },
        {
            "inputs": [],
            "name": "paused",
            "outputs": [
                {
                    "internalType": "bool",
                    "name": "",
                    "type": "bool"
                }
            ],
            "stateMutability": "view",
            "type": "function"
        },
        {
            "inputs": [
                {
                    "internalType": "address",
                    "name": "_token",
                    "type": "address"
                },
                {
                    "internalType": "uint256",
                    "name": "_amount",
                    "type": "uint256"
                }
            ],
            "name": "recoverToken",
            "outputs": [],
            "stateMutability": "nonpayable",
            "type": "function"
        },
        {
            "inputs": [],
            "name": "renounceOwnership",
            "outputs": [],
            "stateMutability": "nonpayable",
            "type": "function"
        },
        {
            "inputs": [
                {
                    "internalType": "uint256",
                    "name": "epoch",
                    "type": "uint256"
                },
                {
                    "internalType": "address",
                    "name": "entrant",
                    "type": "address"
                },
                {
                    "internalType": "bool",
                    "name": "result",
                    "type": "bool"
                }
            ],
            "name": "setWinner",
            "outputs": [],
            "stateMutability": "nonpayable",
            "type": "function"
        },
        {
            "inputs": [
                {
                    "internalType": "uint256",
                    "name": "epoch",
                    "type": "uint256"
                }
            ],
            "name": "startTournament",
            "outputs": [],
            "stateMutability": "nonpayable",
            "type": "function"
        },
        {
            "inputs": [
                {
                    "internalType": "uint256",
                    "name": "epoch",
                    "type": "uint256"
                },
                {
                    "internalType": "address",
                    "name": "entrant",
                    "type": "address"
                },
                {
                    "internalType": "uint256",
                    "name": "score",
                    "type": "uint256"
                }
            ],
            "name": "submitScores",
            "outputs": [],
            "stateMutability": "nonpayable",
            "type": "function"
        },
        {
            "inputs": [
                {
                    "internalType": "uint256",
                    "name": "",
                    "type": "uint256"
                }
            ],
            "name": "tournaments",
            "outputs": [
                {
                    "internalType": "uint256",
                    "name": "epoch",
                    "type": "uint256"
                },
                {
                    "internalType": "uint256",
                    "name": "totalAmount",
                    "type": "uint256"
                },
                {
                    "internalType": "uint256",
                    "name": "totalEntries",
                    "type": "uint256"
                },
                {
                    "internalType": "bool",
                    "name": "isTournamentLocked",
                    "type": "bool"
                },
                {
                    "internalType": "bool",
                    "name": "isTournamentEnded",
                    "type": "bool"
                },
                {
                    "internalType": "uint256",
                    "name": "rewardBaseCalAmount",
                    "type": "uint256"
                },
                {
                    "internalType": "uint256",
                    "name": "rewardAmount",
                    "type": "uint256"
                }
            ],
            "stateMutability": "view",
            "type": "function"
        },
        {
            "inputs": [
                {
                    "internalType": "address",
                    "name": "newOwner",
                    "type": "address"
                }
            ],
            "name": "transferOwnership",
            "outputs": [],
            "stateMutability": "nonpayable",
            "type": "function"
        },
        {
            "inputs": [],
            "name": "treasuryAmount",
            "outputs": [
                {
                    "internalType": "uint256",
                    "name": "",
                    "type": "uint256"
                }
            ],
            "stateMutability": "view",
            "type": "function"
        },
        {
            "inputs": [],
            "name": "treasuryFee",
            "outputs": [
                {
                    "internalType": "uint256",
                    "name": "",
                    "type": "uint256"
                }
            ],
            "stateMutability": "view",
            "type": "function"
        },
        {
            "inputs": [],
            "name": "unpause",
            "outputs": [],
            "stateMutability": "nonpayable",
            "type": "function"
        },
        {
            "inputs": [
                {
                    "internalType": "string",
                    "name": "",
                    "type": "string"
                }
            ],
            "name": "userGamertags",
            "outputs": [
                {
                    "internalType": "uint256",
                    "name": "epoch",
                    "type": "uint256"
                },
                {
                    "internalType": "uint256",
                    "name": "totalAmount",
                    "type": "uint256"
                },
                {
                    "internalType": "uint256",
                    "name": "totalEntries",
                    "type": "uint256"
                },
                {
                    "internalType": "bool",
                    "name": "isTournamentLocked",
                    "type": "bool"
                },
                {
                    "internalType": "bool",
                    "name": "isTournamentEnded",
                    "type": "bool"
                },
                {
                    "internalType": "uint256",
                    "name": "rewardBaseCalAmount",
                    "type": "uint256"
                },
                {
                    "internalType": "uint256",
                    "name": "rewardAmount",
                    "type": "uint256"
                }
            ],
            "stateMutability": "view",
            "type": "function"
        },
        {
            "inputs": [
                {
                    "internalType": "address",
                    "name": "",
                    "type": "address"
                },
                {
                    "internalType": "uint256",
                    "name": "",
                    "type": "uint256"
                }
            ],
            "name": "userTournaments",
            "outputs": [
                {
                    "internalType": "uint256",
                    "name": "",
                    "type": "uint256"
                }
            ],
            "stateMutability": "view",
            "type": "function"
        }
    ],
    "bytecode": "0x6080604052662386f26fc100006005553480156200001c57600080fd5b5060405162003e4038038062003e40833981810160405281019062000042919062000284565b62000062620000566200017460201b60201c565b6200017c60201b60201c565b60008060146101000a81548160ff021916908315150217905550600180819055506103e8811115620000cb576040517f08c379a0000000000000000000000000000000000000000000000000000000008152600401620000c2906200031c565b60405180910390fd5b82600360006101000a81548173ffffffffffffffffffffffffffffffffffffffff021916908373ffffffffffffffffffffffffffffffffffffffff16021790555081600460006101000a81548173ffffffffffffffffffffffffffffffffffffffff021916908373ffffffffffffffffffffffffffffffffffffffff160217905550806006819055506200016b60026200024060201b620021001760201c565b505050620003c1565b600033905090565b60008060009054906101000a900473ffffffffffffffffffffffffffffffffffffffff169050816000806101000a81548173ffffffffffffffffffffffffffffffffffffffff021916908373ffffffffffffffffffffffffffffffffffffffff1602179055508173ffffffffffffffffffffffffffffffffffffffff168173ffffffffffffffffffffffffffffffffffffffff167f8be0079c531659141344cd1fd0a4f28419497f9722a3daafe3b4186f6b6457e060405160405180910390a35050565b6001816000016000828254019250508190555050565b60008151905062000267816200038d565b92915050565b6000815190506200027e81620003a7565b92915050565b6000806000606084860312156200029a57600080fd5b6000620002aa8682870162000256565b9350506020620002bd8682870162000256565b9250506040620002d0868287016200026d565b9150509250925092565b6000620002e96015836200033e565b91507f54726561737572792066656520746f6f206869676800000000000000000000006000830152602082019050919050565b600060208201905081810360008301526200033781620002da565b9050919050565b600082825260208201905092915050565b60006200035c8262000363565b9050919050565b600073ffffffffffffffffffffffffffffffffffffffff82169050919050565b6000819050919050565b62000398816200034f565b8114620003a457600080fd5b50565b620003b28162000383565b8114620003be57600080fd5b50565b613a6f80620003d16000396000f3fe6080604052600436106101cc5760003560e01c80638da5cb5b116100f7578063cc32d17611610095578063f2b3c80911610064578063f2b3c80914610641578063f2fde38b1461066c578063f9118b3214610695578063fc6f9468146106be576101cc565b8063cc32d17614610559578063e0846ea014610584578063e1981cf8146105c1578063eed5e8d614610604576101cc565b8063abc00bb4116100d1578063abc00bb41461049f578063b29a8140146104dc578063bd864c2514610505578063c080b51d14610542576101cc565b80638da5cb5b1461042f578063993b7d5a1461045a578063aa3b47c014610476576101cc565b80635c975abb1161016f5780637285c58b1161013e5780637285c58b146103685780637503e1b7146103aa57806376671808146103ed5780638456cb5914610418576101cc565b80635c975abb146102d257806360643652146102fd578063651ea94314610328578063715018a614610351576101cc565b8063368acb09116101ab578063368acb091461023e578063379607f5146102695780633f4ba83a14610292578063500f8e69146102a9576101cc565b80623bdc74146101d1578063072ea61c146101e8578063127effb214610213575b600080fd5b3480156101dd57600080fd5b506101e66106e9565b005b3480156101f457600080fd5b506101fd610843565b60405161020a9190613675565b60405180910390f35b34801561021f57600080fd5b50610228610849565b60405161023591906132ea565b60405180910390f35b34801561024a57600080fd5b5061025361086f565b6040516102609190613675565b60405180910390f35b34801561027557600080fd5b50610290600480360381019061028b919061299f565b610875565b005b34801561029e57600080fd5b506102a7610ba9565b005b3480156102b557600080fd5b506102d060048036038101906102cb9190612a04565b610cb9565b005b3480156102de57600080fd5b506102e7610e34565b6040516102f49190613350565b60405180910390f35b34801561030957600080fd5b50610312610e4a565b60405161031f9190613675565b60405180910390f35b34801561033457600080fd5b5061034f600480360381019061034a919061299f565b610e50565b005b34801561035d57600080fd5b50610366610f8d565b005b34801561037457600080fd5b5061038f600480360381019061038a91906129c8565b611015565b6040516103a19695949392919061336b565b60405180910390f35b3480156103b657600080fd5b506103d160048036038101906103cc919061299f565b61110d565b6040516103e49796959493929190613690565b60405180910390f35b3480156103f957600080fd5b50610402611169565b60405161040f9190613675565b60405180910390f35b34801561042457600080fd5b5061042d61116f565b005b34801561043b57600080fd5b506104446112d8565b60405161045191906132ea565b60405180910390f35b610474600480360381019061046f9190612aa2565b611301565b005b34801561048257600080fd5b5061049d6004803603810190610498919061299f565b61187a565b005b3480156104ab57600080fd5b506104c660048036038101906104c1919061299f565b6119ac565b6040516104d3919061332e565b60405180910390f35b3480156104e857600080fd5b5061050360048036038101906104fe91906128f9565b611a98565b005b34801561051157600080fd5b5061052c60048036038101906105279190612af6565b611b91565b60405161053991906132ea565b60405180910390f35b34801561054e57600080fd5b50610557611bdf565b005b34801561056557600080fd5b5061056e611cdb565b60405161057b9190613675565b60405180910390f35b34801561059057600080fd5b506105ab60048036038101906105a69190612af6565b611ce1565b6040516105b891906133d3565b60405180910390f35b3480156105cd57600080fd5b506105e860048036038101906105e3919061295e565b611d9a565b6040516105fb9796959493929190613690565b60405180910390f35b34801561061057600080fd5b5061062b600480360381019061062691906128f9565b611e0c565b6040516106389190613675565b60405180910390f35b34801561064d57600080fd5b50610656611e3d565b6040516106639190613675565b60405180910390f35b34801561067857600080fd5b50610693600480360381019061068e91906128d0565b611e43565b005b3480156106a157600080fd5b506106bc60048036038101906106b79190612a53565b611f3b565b005b3480156106ca57600080fd5b506106d36120da565b6040516106e091906132ea565b60405180910390f35b6002600154141561072f576040517f08c379a000000000000000000000000000000000000000000000000000000000815260040161072690613615565b60405180910390fd5b6002600181905550600360009054906101000a900473ffffffffffffffffffffffffffffffffffffffff1673ffffffffffffffffffffffffffffffffffffffff163373ffffffffffffffffffffffffffffffffffffffff16146107c7576040517f08c379a00000000000000000000000000000000000000000000000000000000081526004016107be90613655565b60405180910390fd5b600060075490506000600781905550610802600360009054906101000a900473ffffffffffffffffffffffffffffffffffffffff1682612116565b7f78801bbd7cbf327a12f32881c63ae9e8e8ed5da8a28d4ade2e90029f8fbe34a3816040516108319190613675565b60405180910390a15060018081905550565b60055481565b600460009054906101000a900473ffffffffffffffffffffffffffffffffffffffff1681565b60075481565b600260015414156108bb576040517f08c379a00000000000000000000000000000000000000000000000000000000081526004016108b290613615565b60405180910390fd5b60026001819055506108cc336121c7565b1561090c576040517f08c379a000000000000000000000000000000000000000000000000000000000815260040161090390613455565b60405180910390fd5b3273ffffffffffffffffffffffffffffffffffffffff163373ffffffffffffffffffffffffffffffffffffffff161461097a576040517f08c379a000000000000000000000000000000000000000000000000000000000815260040161097190613555565b60405180910390fd5b6000600a600083815260200190815260200160002060003373ffffffffffffffffffffffffffffffffffffffff1673ffffffffffffffffffffffffffffffffffffffff1681526020019081526020016000209050600115158160040160019054906101000a900460ff16151514610a26576040517f08c379a0000000000000000000000000000000000000000000000000000000008152600401610a1d906134b5565b60405180910390fd5b600080600090506000600d60008681526020019081526020016000206040518060e00160405290816000820154815260200160018201548152602001600282015481526020016003820160009054906101000a900460ff161515151581526020016003820160019054906101000a900460ff161515151581526020016004820154815260200160058201548152505090508060c0015191506001600a600087815260200190815260200160002060003373ffffffffffffffffffffffffffffffffffffffff1673ffffffffffffffffffffffffffffffffffffffff16815260200190815260200160002060040160006101000a81548160ff0219169083151502179055508183610b3691906137dc565b9250843373ffffffffffffffffffffffffffffffffffffffff167f34fcbac0073d7c3d388e51312faf357774904998eeb8fca628b9e6f65ee1cbf784604051610b7f9190613675565b60405180910390a36000831115610b9b57610b9a3384612116565b5b505050506001808190555050565b610bb1610e34565b610bf0576040517f08c379a0000000000000000000000000000000000000000000000000000000008152600401610be7906133f5565b60405180910390fd5b600360009054906101000a900473ffffffffffffffffffffffffffffffffffffffff1673ffffffffffffffffffffffffffffffffffffffff163373ffffffffffffffffffffffffffffffffffffffff1614610c80576040517f08c379a0000000000000000000000000000000000000000000000000000000008152600401610c7790613655565b60405180910390fd5b610c886121da565b6009547faaa520fdd7d2c83061d632fa017b0432407e798818af63ea908589fceda39ab760405160405180910390a2565b610cc1610e34565b15610d01576040517f08c379a0000000000000000000000000000000000000000000000000000000008152600401610cf890613515565b60405180910390fd5b600460009054906101000a900473ffffffffffffffffffffffffffffffffffffffff1673ffffffffffffffffffffffffffffffffffffffff163373ffffffffffffffffffffffffffffffffffffffff1614610d91576040517f08c379a0000000000000000000000000000000000000000000000000000000008152600401610d8890613635565b60405180910390fd5b600d600084815260200190815260200160002060030160019054906101000a900460ff16610dbe57600080fd5b6000600a600085815260200190815260200160002060008473ffffffffffffffffffffffffffffffffffffffff1673ffffffffffffffffffffffffffffffffffffffff1681526020019081526020016000209050818160040160016101000a81548160ff02191690831515021790555050505050565b60008060149054906101000a900460ff16905090565b60085481565b610e58610e34565b15610e98576040517f08c379a0000000000000000000000000000000000000000000000000000000008152600401610e8f90613515565b60405180910390fd5b600460009054906101000a900473ffffffffffffffffffffffffffffffffffffffff1673ffffffffffffffffffffffffffffffffffffffff163373ffffffffffffffffffffffffffffffffffffffff1614610f28576040517f08c379a0000000000000000000000000000000000000000000000000000000008152600401610f1f90613635565b60405180910390fd5b6000600d6000838152602001908152602001600020905060018160030160006101000a81548160ff021916908315150217905550817f6092323421a4a860e7644d69619f90504d467bc4d0ef357c6c17e786217500c560405160405180910390a25050565b610f9561227b565b73ffffffffffffffffffffffffffffffffffffffff16610fb36112d8565b73ffffffffffffffffffffffffffffffffffffffff1614611009576040517f08c379a000000000000000000000000000000000000000000000000000000000815260040161100090613575565b60405180910390fd5b6110136000612283565b565b600a602052816000526040600020602052806000526040600020600091509150508060000160009054906101000a900460ff1690806001018054611058906138e1565b80601f0160208091040260200160405190810160405280929190818152602001828054611084906138e1565b80156110d15780601f106110a6576101008083540402835291602001916110d1565b820191906000526020600020905b8154815290600101906020018083116110b457829003601f168201915b5050505050908060020154908060030154908060040160009054906101000a900460ff16908060040160019054906101000a900460ff16905086565b600d6020528060005260406000206000915090508060000154908060010154908060020154908060030160009054906101000a900460ff16908060030160019054906101000a900460ff16908060040154908060050154905087565b60095481565b611177610e34565b156111b7576040517f08c379a00000000000000000000000000000000000000000000000000000000081526004016111ae90613515565b60405180910390fd5b600360009054906101000a900473ffffffffffffffffffffffffffffffffffffffff1673ffffffffffffffffffffffffffffffffffffffff163373ffffffffffffffffffffffffffffffffffffffff1614806112605750600460009054906101000a900473ffffffffffffffffffffffffffffffffffffffff1673ffffffffffffffffffffffffffffffffffffffff163373ffffffffffffffffffffffffffffffffffffffff16145b61129f576040517f08c379a000000000000000000000000000000000000000000000000000000000815260040161129690613495565b60405180910390fd5b6112a7612347565b6009547f68b095021b1f40fe513109f513c66692f0b3219aee674a69f4efc57badb8201d60405160405180910390a2565b60008060009054906101000a900473ffffffffffffffffffffffffffffffffffffffff16905090565b611309610e34565b15611349576040517f08c379a000000000000000000000000000000000000000000000000000000000815260040161134090613515565b60405180910390fd5b6002600154141561138f576040517f08c379a000000000000000000000000000000000000000000000000000000000815260040161138690613615565b60405180910390fd5b60026001819055506113a0336121c7565b156113e0576040517f08c379a00000000000000000000000000000000000000000000000000000000081526004016113d790613455565b60405180910390fd5b3273ffffffffffffffffffffffffffffffffffffffff163373ffffffffffffffffffffffffffffffffffffffff161461144e576040517f08c379a000000000000000000000000000000000000000000000000000000000815260040161144590613555565b60405180910390fd5b6009548214611492576040517f08c379a000000000000000000000000000000000000000000000000000000000815260040161148990613535565b60405180910390fd5b61149b826123ea565b6114da576040517f08c379a00000000000000000000000000000000000000000000000000000000081526004016114d190613415565b60405180910390fd5b60055434101561151f576040517f08c379a000000000000000000000000000000000000000000000000000000000815260040161151690613595565b60405180910390fd5b6000600a600084815260200190815260200160002060003373ffffffffffffffffffffffffffffffffffffffff1673ffffffffffffffffffffffffffffffffffffffff16815260200190815260200160002060020154146115b5576040517f08c379a00000000000000000000000000000000000000000000000000000000081526004016115ac906134f5565b60405180910390fd5b60003490506000600d600085815260200190815260200160002090508181600101546115e191906137dc565b816001018190555060008160030160006101000a81548160ff02191690831515021790555060008160030160016101000a81548160ff0219169083151502179055506000600a600086815260200190815260200160002060003373ffffffffffffffffffffffffffffffffffffffff1673ffffffffffffffffffffffffffffffffffffffff168152602001908152602001600020905060008160000160006101000a81548160ff021916908360008111156116c5577f4e487b7100000000000000000000000000000000000000000000000000000000600052602160045260246000fd5b0217905550838160010190805190602001906116e2929190612771565b5082816002018190555060008160030181905550600e60003373ffffffffffffffffffffffffffffffffffffffff1673ffffffffffffffffffffffffffffffffffffffff168152602001908152602001600020859080600181540180825580915050600190039060005260206000200160009091909190915055600c6000868152602001908152602001600020339080600181540180825580915050600190039060005260206000200160009091909190916101000a81548173ffffffffffffffffffffffffffffffffffffffff021916908373ffffffffffffffffffffffffffffffffffffffff160217905550600b60008681526020019081526020016000208490806001815401808255809150506001900390600052602060002001600090919091909150908051906020019061181c929190612771565b50843373ffffffffffffffffffffffffffffffffffffffff167f951dacd3b155e0d21ef994d241b3ccf55314be739f555c6575238f39a5a02f31856040516118649190613675565b60405180910390a3505050600180819055505050565b611882610e34565b156118c2576040517f08c379a00000000000000000000000000000000000000000000000000000000081526004016118b990613515565b60405180910390fd5b600460009054906101000a900473ffffffffffffffffffffffffffffffffffffffff1673ffffffffffffffffffffffffffffffffffffffff163373ffffffffffffffffffffffffffffffffffffffff1614611952576040517f08c379a000000000000000000000000000000000000000000000000000000000815260040161194990613635565b60405180910390fd5b6000600d6000838152602001908152602001600020905060018160030160016101000a81548160ff0219169083151502179055506000611992600261241f565b905061199d8161242d565b6119a76002612100565b505050565b6060600b6000838152602001908152602001600020805480602002602001604051908101604052809291908181526020016000905b82821015611a8d578382906000526020600020018054611a00906138e1565b80601f0160208091040260200160405190810160405280929190818152602001828054611a2c906138e1565b8015611a795780601f10611a4e57610100808354040283529160200191611a79565b820191906000526020600020905b815481529060010190602001808311611a5c57829003601f168201915b5050505050815260200190600101906119e1565b505050509050919050565b611aa061227b565b73ffffffffffffffffffffffffffffffffffffffff16611abe6112d8565b73ffffffffffffffffffffffffffffffffffffffff1614611b14576040517f08c379a0000000000000000000000000000000000000000000000000000000008152600401611b0b90613575565b60405180910390fd5b611b3f33828473ffffffffffffffffffffffffffffffffffffffff1661247e9092919063ffffffff16565b8173ffffffffffffffffffffffffffffffffffffffff167f14f11966a996e0629572e51064726d2057a80fbd34efc066682c06a71dbb6e9882604051611b859190613675565b60405180910390a25050565b600c6020528160005260406000208181548110611bad57600080fd5b906000526020600020016000915091509054906101000a900473ffffffffffffffffffffffffffffffffffffffff1681565b611be7610e34565b15611c27576040517f08c379a0000000000000000000000000000000000000000000000000000000008152600401611c1e90613515565b60405180910390fd5b600460009054906101000a900473ffffffffffffffffffffffffffffffffffffffff1673ffffffffffffffffffffffffffffffffffffffff163373ffffffffffffffffffffffffffffffffffffffff1614611cb7576040517f08c379a0000000000000000000000000000000000000000000000000000000008152600401611cae90613635565b60405180910390fd5b6000611cc3600261241f565b9050611cce8161242d565b611cd86002612100565b50565b60065481565b600b6020528160005260406000208181548110611cfd57600080fd5b90600052602060002001600091509150508054611d19906138e1565b80601f0160208091040260200160405190810160405280929190818152602001828054611d45906138e1565b8015611d925780601f10611d6757610100808354040283529160200191611d92565b820191906000526020600020905b815481529060010190602001808311611d7557829003601f168201915b505050505081565b600f818051602081018201805184825260208301602085012081835280955050505050506000915090508060000154908060010154908060020154908060030160009054906101000a900460ff16908060030160019054906101000a900460ff16908060040154908060050154905087565b600e6020528160005260406000208181548110611e2857600080fd5b90600052602060002001600091509150505481565b6103e881565b611e4b61227b565b73ffffffffffffffffffffffffffffffffffffffff16611e696112d8565b73ffffffffffffffffffffffffffffffffffffffff1614611ebf576040517f08c379a0000000000000000000000000000000000000000000000000000000008152600401611eb690613575565b60405180910390fd5b600073ffffffffffffffffffffffffffffffffffffffff168173ffffffffffffffffffffffffffffffffffffffff161415611f2f576040517f08c379a0000000000000000000000000000000000000000000000000000000008152600401611f2690613435565b60405180910390fd5b611f3881612283565b50565b611f43610e34565b15611f83576040517f08c379a0000000000000000000000000000000000000000000000000000000008152600401611f7a90613515565b60405180910390fd5b600460009054906101000a900473ffffffffffffffffffffffffffffffffffffffff1673ffffffffffffffffffffffffffffffffffffffff163373ffffffffffffffffffffffffffffffffffffffff1614612013576040517f08c379a000000000000000000000000000000000000000000000000000000000815260040161200a90613635565b60405180910390fd5b600d600084815260200190815260200160002060030160019054906101000a900460ff1615612077576040517f08c379a000000000000000000000000000000000000000000000000000000000815260040161206e90613475565b60405180910390fd5b6000600a600085815260200190815260200160002060008473ffffffffffffffffffffffffffffffffffffffff1673ffffffffffffffffffffffffffffffffffffffff168152602001908152602001600020905081816003018190555050505050565b600360009054906101000a900473ffffffffffffffffffffffffffffffffffffffff1681565b6001816000016000828254019250508190555050565b60008273ffffffffffffffffffffffffffffffffffffffff168260405161213c906132d5565b60006040518083038185875af1925050503d8060008114612179576040519150601f19603f3d011682016040523d82523d6000602084013e61217e565b606091505b50509050806121c2576040517f08c379a00000000000000000000000000000000000000000000000000000000081526004016121b9906135d5565b60405180910390fd5b505050565b600080823b905060008111915050919050565b6121e2610e34565b612221576040517f08c379a0000000000000000000000000000000000000000000000000000000008152600401612218906133f5565b60405180910390fd5b60008060146101000a81548160ff0219169083151502179055507f5db9ee0a495bf2e6ff9c91a7834c1ba4fdd244a5e8aa4e537bd38aeae4b073aa61226461227b565b60405161227191906132ea565b60405180910390a1565b600033905090565b60008060009054906101000a900473ffffffffffffffffffffffffffffffffffffffff169050816000806101000a81548173ffffffffffffffffffffffffffffffffffffffff021916908373ffffffffffffffffffffffffffffffffffffffff1602179055508173ffffffffffffffffffffffffffffffffffffffff168173ffffffffffffffffffffffffffffffffffffffff167f8be0079c531659141344cd1fd0a4f28419497f9722a3daafe3b4186f6b6457e060405160405180910390a35050565b61234f610e34565b1561238f576040517f08c379a000000000000000000000000000000000000000000000000000000000815260040161238690613515565b60405180910390fd5b6001600060146101000a81548160ff0219169083151502179055507f62e78cea01bee320cd4e420270b5ea74000d11b0c9f74754ebdbfc544b05a2586123d361227b565b6040516123e091906132ea565b60405180910390a1565b600060011515600d600084815260200190815260200160002060030160009054906101000a900460ff16151514159050919050565b600081600001549050919050565b6000600d60008381526020019081526020016000209050818160000181905550817f33fb7dad7de8501626ab713d9888da70d0a2abe28a9cd3f17c5ea044fab7809c60405160405180910390a25050565b6124ff8363a9059cbb60e01b848460405160240161249d929190613305565b604051602081830303815290604052907bffffffffffffffffffffffffffffffffffffffffffffffffffffffff19166020820180517bffffffffffffffffffffffffffffffffffffffffffffffffffffffff8381831617835250505050612504565b505050565b6000612566826040518060400160405280602081526020017f5361666545524332303a206c6f772d6c6576656c2063616c6c206661696c65648152508573ffffffffffffffffffffffffffffffffffffffff166125cb9092919063ffffffff16565b90506000815111156125c657808060200190518101906125869190612935565b6125c5576040517f08c379a00000000000000000000000000000000000000000000000000000000081526004016125bc906135f5565b60405180910390fd5b5b505050565b60606125da84846000856125e3565b90509392505050565b606082471015612628576040517f08c379a000000000000000000000000000000000000000000000000000000000815260040161261f906134d5565b60405180910390fd5b612631856126f7565b612670576040517f08c379a0000000000000000000000000000000000000000000000000000000008152600401612667906135b5565b60405180910390fd5b6000808673ffffffffffffffffffffffffffffffffffffffff16858760405161269991906132be565b60006040518083038185875af1925050503d80600081146126d6576040519150601f19603f3d011682016040523d82523d6000602084013e6126db565b606091505b50915091506126eb82828661270a565b92505050949350505050565b600080823b905060008111915050919050565b6060831561271a5782905061276a565b60008351111561272d5782518084602001fd5b816040517f08c379a000000000000000000000000000000000000000000000000000000000815260040161276191906133d3565b60405180910390fd5b9392505050565b82805461277d906138e1565b90600052602060002090601f01602090048101928261279f57600085556127e6565b82601f106127b857805160ff19168380011785556127e6565b828001600101855582156127e6579182015b828111156127e55782518255916020019190600101906127ca565b5b5090506127f391906127f7565b5090565b5b808211156128105760008160009055506001016127f8565b5090565b600061282761282284613730565b6136ff565b90508281526020810184848401111561283f57600080fd5b61284a84828561389f565b509392505050565b600081359050612861816139f4565b92915050565b60008135905061287681613a0b565b92915050565b60008151905061288b81613a0b565b92915050565b600082601f8301126128a257600080fd5b81356128b2848260208601612814565b91505092915050565b6000813590506128ca81613a22565b92915050565b6000602082840312156128e257600080fd5b60006128f084828501612852565b91505092915050565b6000806040838503121561290c57600080fd5b600061291a85828601612852565b925050602061292b858286016128bb565b9150509250929050565b60006020828403121561294757600080fd5b60006129558482850161287c565b91505092915050565b60006020828403121561297057600080fd5b600082013567ffffffffffffffff81111561298a57600080fd5b61299684828501612891565b91505092915050565b6000602082840312156129b157600080fd5b60006129bf848285016128bb565b91505092915050565b600080604083850312156129db57600080fd5b60006129e9858286016128bb565b92505060206129fa85828601612852565b9150509250929050565b600080600060608486031215612a1957600080fd5b6000612a27868287016128bb565b9350506020612a3886828701612852565b9250506040612a4986828701612867565b9150509250925092565b600080600060608486031215612a6857600080fd5b6000612a76868287016128bb565b9350506020612a8786828701612852565b9250506040612a98868287016128bb565b9150509250925092565b60008060408385031215612ab557600080fd5b6000612ac3858286016128bb565b925050602083013567ffffffffffffffff811115612ae057600080fd5b612aec85828601612891565b9150509250929050565b60008060408385031215612b0957600080fd5b6000612b17858286016128bb565b9250506020612b28858286016128bb565b9150509250929050565b6000612b3e8383612c19565b905092915050565b612b4f81613832565b82525050565b6000612b6082613770565b612b6a818561379e565b935083602082028501612b7c85613760565b8060005b85811015612bb85784840389528151612b998582612b32565b9450612ba483613791565b925060208a01995050600181019050612b80565b50829750879550505050505092915050565b612bd381613844565b82525050565b6000612be48261377b565b612bee81856137af565b9350612bfe8185602086016138ae565b80840191505092915050565b612c138161388d565b82525050565b6000612c2482613786565b612c2e81856137ba565b9350612c3e8185602086016138ae565b612c47816139cf565b840191505092915050565b6000612c5d82613786565b612c6781856137cb565b9350612c778185602086016138ae565b612c80816139cf565b840191505092915050565b6000612c986014836137cb565b91507f5061757361626c653a206e6f74207061757365640000000000000000000000006000830152602082019050919050565b6000612cd86018836137cb565b91507f546f75726e616d656e74206e6f7420656e74657261626c6500000000000000006000830152602082019050919050565b6000612d186026836137cb565b91507f4f776e61626c653a206e6577206f776e657220697320746865207a65726f206160008301527f64647265737300000000000000000000000000000000000000000000000000006020830152604082019050919050565b6000612d7e6014836137cb565b91507f436f6e7472616374206e6f7420616c6c6f7765640000000000000000000000006000830152602082019050919050565b6000612dbe602b836137cb565b91507f546f75726e616d656e742068617320656e646564202d2063616e6e6f7420737560008301527f626d69742073636f7265730000000000000000000000000000000000000000006020830152604082019050919050565b6000612e246012836137cb565b91507f4e6f74206f70657261746f722f61646d696e00000000000000000000000000006000830152602082019050919050565b6000612e64600f836137cb565b91507f596f7520646964206e6f742077696e00000000000000000000000000000000006000830152602082019050919050565b6000612ea46026836137cb565b91507f416464726573733a20696e73756666696369656e742062616c616e636520666f60008301527f722063616c6c00000000000000000000000000000000000000000000000000006020830152604082019050919050565b6000612f0a6022836137cb565b91507f43616e206f6e6c7920656e746572206f6e63652070657220746f75726e616d6560008301527f6e740000000000000000000000000000000000000000000000000000000000006020830152604082019050919050565b6000612f706010836137cb565b91507f5061757361626c653a20706175736564000000000000000000000000000000006000830152602082019050919050565b6000612fb06017836137cb565b91507f456e74727920697320746f6f206561726c792f6c6174650000000000000000006000830152602082019050919050565b6000612ff0601a836137cb565b91507f50726f787920636f6e7472616374206e6f7420616c6c6f7765640000000000006000830152602082019050919050565b60006130306020836137cb565b91507f4f776e61626c653a2063616c6c6572206973206e6f7420746865206f776e65726000830152602082019050919050565b6000613070602e836137cb565b91507f456e7472792066656520616d6f756e74206d757374206265206772656174657260008301527f207468616e20656e7472794665650000000000000000000000000000000000006020830152604082019050919050565b60006130d66000836137af565b9150600082019050919050565b60006130f0601d836137cb565b91507f416464726573733a2063616c6c20746f206e6f6e2d636f6e74726163740000006000830152602082019050919050565b60006131306023836137cb565b91507f5472616e7366657248656c7065723a204554485f5452414e534645525f46414960008301527f4c454400000000000000000000000000000000000000000000000000000000006020830152604082019050919050565b6000613196602a836137cb565b91507f5361666545524332303a204552433230206f7065726174696f6e20646964206e60008301527f6f742073756363656564000000000000000000000000000000000000000000006020830152604082019050919050565b60006131fc601f836137cb565b91507f5265656e7472616e637947756172643a207265656e7472616e742063616c6c006000830152602082019050919050565b600061323c600c836137cb565b91507f4e6f74206f70657261746f7200000000000000000000000000000000000000006000830152602082019050919050565b600061327c6009836137cb565b91507f4e6f742061646d696e00000000000000000000000000000000000000000000006000830152602082019050919050565b6132b881613883565b82525050565b60006132ca8284612bd9565b915081905092915050565b60006132e0826130c9565b9150819050919050565b60006020820190506132ff6000830184612b46565b92915050565b600060408201905061331a6000830185612b46565b61332760208301846132af565b9392505050565b600060208201905081810360008301526133488184612b55565b905092915050565b60006020820190506133656000830184612bca565b92915050565b600060c0820190506133806000830189612c0a565b81810360208301526133928188612c52565b90506133a160408301876132af565b6133ae60608301866132af565b6133bb6080830185612bca565b6133c860a0830184612bca565b979650505050505050565b600060208201905081810360008301526133ed8184612c52565b905092915050565b6000602082019050818103600083015261340e81612c8b565b9050919050565b6000602082019050818103600083015261342e81612ccb565b9050919050565b6000602082019050818103600083015261344e81612d0b565b9050919050565b6000602082019050818103600083015261346e81612d71565b9050919050565b6000602082019050818103600083015261348e81612db1565b9050919050565b600060208201905081810360008301526134ae81612e17565b9050919050565b600060208201905081810360008301526134ce81612e57565b9050919050565b600060208201905081810360008301526134ee81612e97565b9050919050565b6000602082019050818103600083015261350e81612efd565b9050919050565b6000602082019050818103600083015261352e81612f63565b9050919050565b6000602082019050818103600083015261354e81612fa3565b9050919050565b6000602082019050818103600083015261356e81612fe3565b9050919050565b6000602082019050818103600083015261358e81613023565b9050919050565b600060208201905081810360008301526135ae81613063565b9050919050565b600060208201905081810360008301526135ce816130e3565b9050919050565b600060208201905081810360008301526135ee81613123565b9050919050565b6000602082019050818103600083015261360e81613189565b9050919050565b6000602082019050818103600083015261362e816131ef565b9050919050565b6000602082019050818103600083015261364e8161322f565b9050919050565b6000602082019050818103600083015261366e8161326f565b9050919050565b600060208201905061368a60008301846132af565b92915050565b600060e0820190506136a5600083018a6132af565b6136b260208301896132af565b6136bf60408301886132af565b6136cc6060830187612bca565b6136d96080830186612bca565b6136e660a08301856132af565b6136f360c08301846132af565b98975050505050505050565b6000604051905081810181811067ffffffffffffffff82111715613726576137256139a0565b5b8060405250919050565b600067ffffffffffffffff82111561374b5761374a6139a0565b5b601f19601f8301169050602081019050919050565b6000819050602082019050919050565b600081519050919050565b600081519050919050565b600081519050919050565b6000602082019050919050565b600082825260208201905092915050565b600081905092915050565b600082825260208201905092915050565b600082825260208201905092915050565b60006137e782613883565b91506137f283613883565b9250827fffffffffffffffffffffffffffffffffffffffffffffffffffffffffffffffff0382111561382757613826613913565b5b828201905092915050565b600061383d82613863565b9050919050565b60008115159050919050565b600081905061385e826139e0565b919050565b600073ffffffffffffffffffffffffffffffffffffffff82169050919050565b6000819050919050565b600061389882613850565b9050919050565b82818337600083830152505050565b60005b838110156138cc5780820151818401526020810190506138b1565b838111156138db576000848401525b50505050565b600060028204905060018216806138f957607f821691505b6020821081141561390d5761390c613971565b5b50919050565b7f4e487b7100000000000000000000000000000000000000000000000000000000600052601160045260246000fd5b7f4e487b7100000000000000000000000000000000000000000000000000000000600052602160045260246000fd5b7f4e487b7100000000000000000000000000000000000000000000000000000000600052602260045260246000fd5b7f4e487b7100000000000000000000000000000000000000000000000000000000600052604160045260246000fd5b6000601f19601f8301169050919050565b600181106139f1576139f0613942565b5b50565b6139fd81613832565b8114613a0857600080fd5b50565b613a1481613844565b8114613a1f57600080fd5b50565b613a2b81613883565b8114613a3657600080fd5b5056fea264697066735822122094c3150f8fb74397ac091795b1c503929b4bb80747550d6fa9782476dca934f264736f6c63430008000033",
    "linkReferences": {},
    "deployedLinkReferences": {}
}