{
  "_format": "hh-sol-artifact-1",
  "contractName": "DailyCashGame",
  "sourceName": "contracts/DailyCashGame.sol",
  "abi": [
    {
      "inputs": [
        {
          "internalType": "address",
          "name": "_adminAddress",
          "type": "address"
        },
        {
          "internalType": "address",
          "name": "_operatorAddress",
          "type": "address"
        },
        {
          "internalType": "uint256",
          "name": "_treasuryFee",
          "type": "uint256"
        }
      ],
      "stateMutability": "nonpayable",
      "type": "constructor"
    },
    {
      "anonymous": false,
      "inputs": [
        {
          "indexed": true,
          "internalType": "address",
          "name": "sender",
          "type": "address"
        },
        {
          "indexed": true,
          "internalType": "uint256",
          "name": "epoch",
          "type": "uint256"
        },
        {
          "indexed": false,
          "internalType": "uint256",
          "name": "amount",
          "type": "uint256"
        }
      ],
      "name": "Claim",
      "type": "event"
    },
    {
      "anonymous": false,
      "inputs": [
        {
          "indexed": true,
          "internalType": "uint256",
          "name": "epoch",
          "type": "uint256"
        },
        {
          "indexed": true,
          "internalType": "uint256",
          "name": "tournamentId",
          "type": "uint256"
        }
      ],
      "name": "EndTournament",
      "type": "event"
    },
    {
      "anonymous": false,
      "inputs": [
        {
          "indexed": true,
          "internalType": "uint256",
          "name": "epoch",
          "type": "uint256"
        },
        {
          "indexed": true,
          "internalType": "uint256",
          "name": "tournamentId",
          "type": "uint256"
        }
      ],
      "name": "LockTournament",
      "type": "event"
    },
    {
      "anonymous": false,
      "inputs": [
        {
          "indexed": false,
          "internalType": "address",
          "name": "admin",
          "type": "address"
        }
      ],
      "name": "NewAdminAddress",
      "type": "event"
    },
    {
      "anonymous": false,
      "inputs": [
        {
          "indexed": true,
          "internalType": "uint256",
          "name": "epoch",
          "type": "uint256"
        },
        {
          "indexed": false,
          "internalType": "uint256",
          "name": "minBetAmount",
          "type": "uint256"
        }
      ],
      "name": "NewEntryFeeAmount",
      "type": "event"
    },
    {
      "anonymous": false,
      "inputs": [
        {
          "indexed": false,
          "internalType": "address",
          "name": "operator",
          "type": "address"
        }
      ],
      "name": "NewOperatorAddress",
      "type": "event"
    },
    {
      "anonymous": false,
      "inputs": [
        {
          "indexed": true,
          "internalType": "uint256",
          "name": "epoch",
          "type": "uint256"
        },
        {
          "indexed": false,
          "internalType": "uint256",
          "name": "treasuryFee",
          "type": "uint256"
        }
      ],
      "name": "NewTreasuryFee",
      "type": "event"
    },
    {
      "anonymous": false,
      "inputs": [
        {
          "indexed": true,
          "internalType": "address",
          "name": "previousOwner",
          "type": "address"
        },
        {
          "indexed": true,
          "internalType": "address",
          "name": "newOwner",
          "type": "address"
        }
      ],
      "name": "OwnershipTransferred",
      "type": "event"
    },
    {
      "anonymous": false,
      "inputs": [
        {
          "indexed": true,
          "internalType": "uint256",
          "name": "epoch",
          "type": "uint256"
        }
      ],
      "name": "Pause",
      "type": "event"
    },
    {
      "anonymous": false,
      "inputs": [
        {
          "indexed": false,
          "internalType": "address",
          "name": "account",
          "type": "address"
        }
      ],
      "name": "Paused",
      "type": "event"
    },
    {
      "anonymous": false,
      "inputs": [
        {
          "indexed": true,
          "internalType": "uint256",
          "name": "epoch",
          "type": "uint256"
        },
        {
          "indexed": false,
          "internalType": "uint256",
          "name": "rewardBaseCalAmount",
          "type": "uint256"
        },
        {
          "indexed": false,
          "internalType": "uint256",
          "name": "rewardAmount",
          "type": "uint256"
        },
        {
          "indexed": false,
          "internalType": "uint256",
          "name": "treasuryAmount",
          "type": "uint256"
        }
      ],
      "name": "RewardsCalculated",
      "type": "event"
    },
    {
      "anonymous": false,
      "inputs": [
        {
          "indexed": true,
          "internalType": "address",
          "name": "token",
          "type": "address"
        },
        {
          "indexed": false,
          "internalType": "uint256",
          "name": "amount",
          "type": "uint256"
        }
      ],
      "name": "TokenRecovery",
      "type": "event"
    },
    {
      "anonymous": false,
      "inputs": [
        {
          "indexed": true,
          "internalType": "uint256",
          "name": "epoch",
          "type": "uint256"
        }
      ],
      "name": "TournamentCreated",
      "type": "event"
    },
    {
      "anonymous": false,
      "inputs": [
        {
          "indexed": true,
          "internalType": "address",
          "name": "sender",
          "type": "address"
        },
        {
          "indexed": true,
          "internalType": "uint256",
          "name": "epoch",
          "type": "uint256"
        },
        {
          "indexed": false,
          "internalType": "uint256",
          "name": "amount",
          "type": "uint256"
        }
      ],
      "name": "TournamentEntered",
      "type": "event"
    },
    {
      "anonymous": false,
      "inputs": [
        {
          "indexed": true,
          "internalType": "uint256",
          "name": "epoch",
          "type": "uint256"
        }
      ],
      "name": "TournamentStarted",
      "type": "event"
    },
    {
      "anonymous": false,
      "inputs": [
        {
          "indexed": false,
          "internalType": "uint256",
          "name": "amount",
          "type": "uint256"
        }
      ],
      "name": "TreasuryClaimed",
      "type": "event"
    },
    {
      "anonymous": false,
      "inputs": [
        {
          "indexed": true,
          "internalType": "uint256",
          "name": "epoch",
          "type": "uint256"
        }
      ],
      "name": "Unpause",
      "type": "event"
    },
    {
      "anonymous": false,
      "inputs": [
        {
          "indexed": false,
          "internalType": "address",
          "name": "account",
          "type": "address"
        }
      ],
      "name": "Unpaused",
      "type": "event"
    },
    {
      "inputs": [
        {
          "internalType": "uint256",
          "name": "epoch",
          "type": "uint256"
        }
      ],
      "name": "claim",
      "outputs": [],
      "stateMutability": "nonpayable",
      "type": "function"
    },
    {
      "inputs": [],
      "name": "claimTreasury",
      "outputs": [],
      "stateMutability": "nonpayable",
      "type": "function"
    },
    {
      "inputs": [],
      "name": "createTournament",
      "outputs": [],
      "stateMutability": "nonpayable",
      "type": "function"
    },
    {
      "inputs": [],
      "name": "currentEpoch",
      "outputs": [
        {
          "internalType": "uint256",
          "name": "",
          "type": "uint256"
        }
      ],
      "stateMutability": "view",
      "type": "function"
    },
    {
      "inputs": [
        {
          "internalType": "uint256",
          "name": "epoch",
          "type": "uint256"
        }
      ],
      "name": "endTournament",
      "outputs": [],
      "stateMutability": "nonpayable",
      "type": "function"
    },
    {
      "inputs": [
        {
          "internalType": "uint256",
          "name": "epoch",
          "type": "uint256"
        },
        {
          "internalType": "string",
          "name": "gamertag",
          "type": "string"
        }
      ],
      "name": "enterTournament",
      "outputs": [],
      "stateMutability": "payable",
      "type": "function"
    },
    {
      "inputs": [],
      "name": "entryFee",
      "outputs": [
        {
          "internalType": "uint256",
          "name": "",
          "type": "uint256"
        }
      ],
      "stateMutability": "view",
      "type": "function"
    },
    {
      "inputs": [
        {
          "internalType": "uint256",
          "name": "epoch",
          "type": "uint256"
        }
      ],
      "name": "getEntrantAddresses",
      "outputs": [
        {
          "internalType": "address[]",
          "name": "",
          "type": "address[]"
        }
      ],
      "stateMutability": "view",
      "type": "function"
    },
    {
      "inputs": [
        {
          "internalType": "uint256",
          "name": "epoch",
          "type": "uint256"
        }
      ],
      "name": "getEntrantGamertags",
      "outputs": [
        {
          "internalType": "string[]",
          "name": "",
          "type": "string[]"
        }
      ],
      "stateMutability": "view",
      "type": "function"
    },
    {
      "inputs": [
        {
          "internalType": "uint256",
          "name": "",
          "type": "uint256"
        },
        {
          "internalType": "address",
          "name": "",
          "type": "address"
        }
      ],
      "name": "ledger",
      "outputs": [
        {
          "internalType": "enum DailyCashGame.Entry",
          "name": "entry",
          "type": "uint8"
        },
        {
          "internalType": "string",
          "name": "gamertag",
          "type": "string"
        },
        {
          "internalType": "uint256",
          "name": "amount",
          "type": "uint256"
        },
        {
          "internalType": "uint256",
          "name": "score",
          "type": "uint256"
        },
        {
          "internalType": "bool",
          "name": "claimed",
          "type": "bool"
        },
        {
          "internalType": "bool",
          "name": "result",
          "type": "bool"
        }
      ],
      "stateMutability": "view",
      "type": "function"
    },
    {
      "inputs": [],
      "name": "maxEntrants",
      "outputs": [
        {
          "internalType": "uint256",
          "name": "",
          "type": "uint256"
        }
      ],
      "stateMutability": "view",
      "type": "function"
    },
    {
      "inputs": [],
      "name": "owner",
      "outputs": [
        {
          "internalType": "address",
          "name": "",
          "type": "address"
        }
      ],
      "stateMutability": "view",
      "type": "function"
    },
    {
      "inputs": [],
      "name": "pause",
      "outputs": [],
      "stateMutability": "nonpayable",
      "type": "function"
    },
    {
      "inputs": [],
      "name": "paused",
      "outputs": [
        {
          "internalType": "bool",
          "name": "",
          "type": "bool"
        }
      ],
      "stateMutability": "view",
      "type": "function"
    },
    {
      "inputs": [
        {
          "internalType": "address",
          "name": "_token",
          "type": "address"
        },
        {
          "internalType": "uint256",
          "name": "_amount",
          "type": "uint256"
        }
      ],
      "name": "recoverToken",
      "outputs": [],
      "stateMutability": "nonpayable",
      "type": "function"
    },
    {
      "inputs": [],
      "name": "renounceOwnership",
      "outputs": [],
      "stateMutability": "nonpayable",
      "type": "function"
    },
    {
      "inputs": [
        {
          "internalType": "uint256",
          "name": "epoch",
          "type": "uint256"
        },
        {
          "internalType": "address",
          "name": "entrant",
          "type": "address"
        },
        {
          "internalType": "bool",
          "name": "result",
          "type": "bool"
        }
      ],
      "name": "setWinners",
      "outputs": [],
      "stateMutability": "nonpayable",
      "type": "function"
    },
    {
      "inputs": [
        {
          "internalType": "uint256",
          "name": "epoch",
          "type": "uint256"
        }
      ],
      "name": "startTournament",
      "outputs": [],
      "stateMutability": "nonpayable",
      "type": "function"
    },
    {
      "inputs": [
        {
          "internalType": "uint256",
          "name": "epoch",
          "type": "uint256"
        },
        {
          "internalType": "address",
          "name": "entrant",
          "type": "address"
        },
        {
          "internalType": "uint256",
          "name": "score",
          "type": "uint256"
        }
      ],
      "name": "submitScores",
      "outputs": [],
      "stateMutability": "nonpayable",
      "type": "function"
    },
    {
      "inputs": [
        {
          "internalType": "uint256",
          "name": "",
          "type": "uint256"
        }
      ],
      "name": "tournaments",
      "outputs": [
        {
          "internalType": "uint256",
          "name": "epoch",
          "type": "uint256"
        },
        {
          "internalType": "uint256",
          "name": "totalAmount",
          "type": "uint256"
        },
        {
          "internalType": "uint256",
          "name": "totoalEntries",
          "type": "uint256"
        },
        {
          "internalType": "bool",
          "name": "isTournamentLocked",
          "type": "bool"
        },
        {
          "internalType": "bool",
          "name": "isTournamentEnded",
          "type": "bool"
        },
        {
          "internalType": "uint256",
          "name": "rewardBaseCalAmount",
          "type": "uint256"
        },
        {
          "internalType": "uint256",
          "name": "rewardAmount",
          "type": "uint256"
        }
      ],
      "stateMutability": "view",
      "type": "function"
    },
    {
      "inputs": [
        {
          "internalType": "address",
          "name": "newOwner",
          "type": "address"
        }
      ],
      "name": "transferOwnership",
      "outputs": [],
      "stateMutability": "nonpayable",
      "type": "function"
    },
    {
      "inputs": [],
      "name": "unpause",
      "outputs": [],
      "stateMutability": "nonpayable",
      "type": "function"
    }
  ],
  "bytecode": "0x6080604052662386f26fc10000600555600a6008553480156200002157600080fd5b5060405162003ab438038062003ab4833981810160405281019062000047919062000241565b620000676200005b6200013160201b60201c565b6200013960201b60201c565b60008060146101000a81548160ff0219169083151502179055506001808190555082600360006101000a81548173ffffffffffffffffffffffffffffffffffffffff021916908373ffffffffffffffffffffffffffffffffffffffff16021790555081600460006101000a81548173ffffffffffffffffffffffffffffffffffffffff021916908373ffffffffffffffffffffffffffffffffffffffff16021790555080600681905550620001286002620001fd60201b62001bb91760201c565b50505062000309565b600033905090565b60008060009054906101000a900473ffffffffffffffffffffffffffffffffffffffff169050816000806101000a81548173ffffffffffffffffffffffffffffffffffffffff021916908373ffffffffffffffffffffffffffffffffffffffff1602179055508173ffffffffffffffffffffffffffffffffffffffff168173ffffffffffffffffffffffffffffffffffffffff167f8be0079c531659141344cd1fd0a4f28419497f9722a3daafe3b4186f6b6457e060405160405180910390a35050565b6001816000016000828254019250508190555050565b6000815190506200022481620002d5565b92915050565b6000815190506200023b81620002ef565b92915050565b6000806000606084860312156200025757600080fd5b6000620002678682870162000213565b93505060206200027a8682870162000213565b92505060406200028d868287016200022a565b9150509250925092565b6000620002a482620002ab565b9050919050565b600073ffffffffffffffffffffffffffffffffffffffff82169050919050565b6000819050919050565b620002e08162000297565b8114620002ec57600080fd5b50565b620002fa81620002cb565b81146200030657600080fd5b50565b61379b80620003196000396000f3fe6080604052600436106101345760003560e01c806376671808116100ab578063aa3b47c01161006f578063aa3b47c0146103b3578063b29a8140146103dc578063d29229d214610405578063f2fde38b1461042e578063f9118b3214610457578063fd56a6921461048057610134565b806376671808146103135780638456cb591461033e5780638da5cb5b14610355578063993b7d5a146103805780639dae60811461039c57610134565b80635c975abb116100fd5780635c975abb146101f85780636064365214610223578063651ea9431461024e578063715018a6146102775780637285c58b1461028e5780637503e1b7146102d057610134565b80623bdc7414610139578063072ea61c14610150578063379607f51461017b57806339d6d90e146101a45780633f4ba83a146101e1575b600080fd5b34801561014557600080fd5b5061014e6104bd565b005b34801561015c57600080fd5b50610165610617565b6040516101729190613243565b60405180910390f35b34801561018757600080fd5b506101a2600480360381019061019d91906125ae565b61061d565b005b3480156101b057600080fd5b506101cb60048036038101906101c691906125ae565b610966565b6040516101d89190612f1c565b60405180910390f35b3480156101ed57600080fd5b506101f6610a52565b005b34801561020457600080fd5b5061020d610b62565b60405161021a9190612f3e565b60405180910390f35b34801561022f57600080fd5b50610238610b78565b6040516102459190613243565b60405180910390f35b34801561025a57600080fd5b50610275600480360381019061027091906125ae565b610b7e565b005b34801561028357600080fd5b5061028c610cbb565b005b34801561029a57600080fd5b506102b560048036038101906102b091906125d7565b610d43565b6040516102c796959493929190612f59565b60405180910390f35b3480156102dc57600080fd5b506102f760048036038101906102f291906125ae565b610e3b565b60405161030a9796959493929190613295565b60405180910390f35b34801561031f57600080fd5b50610328610e97565b6040516103359190613243565b60405180910390f35b34801561034a57600080fd5b50610353610e9d565b005b34801561036157600080fd5b5061036a610fae565b6040516103779190612eb6565b60405180910390f35b61039a600480360381019061039591906126b1565b610fd7565b005b3480156103a857600080fd5b506103b1611474565b005b3480156103bf57600080fd5b506103da60048036038101906103d591906125ae565b61155f565b005b3480156103e857600080fd5b5061040360048036038101906103fe9190612549565b61169e565b005b34801561041157600080fd5b5061042c60048036038101906104279190612613565b611797565b005b34801561043a57600080fd5b5061045560048036038101906104509190612520565b6118e5565b005b34801561046357600080fd5b5061047e60048036038101906104799190612662565b6119dd565b005b34801561048c57600080fd5b506104a760048036038101906104a291906125ae565b611b18565b6040516104b49190612efa565b60405180910390f35b60026001541415610503576040517f08c379a00000000000000000000000000000000000000000000000000000000081526004016104fa906131e3565b60405180910390fd5b6002600181905550600360009054906101000a900473ffffffffffffffffffffffffffffffffffffffff1673ffffffffffffffffffffffffffffffffffffffff163373ffffffffffffffffffffffffffffffffffffffff161461059b576040517f08c379a000000000000000000000000000000000000000000000000000000000815260040161059290613223565b60405180910390fd5b6000600754905060006007819055506105d6600360009054906101000a900473ffffffffffffffffffffffffffffffffffffffff1682611bcf565b7f78801bbd7cbf327a12f32881c63ae9e8e8ed5da8a28d4ade2e90029f8fbe34a3816040516106059190613243565b60405180910390a15060018081905550565b60055481565b60026001541415610663576040517f08c379a000000000000000000000000000000000000000000000000000000000815260040161065a906131e3565b60405180910390fd5b600260018190555061067433611c80565b156106b4576040517f08c379a00000000000000000000000000000000000000000000000000000000081526004016106ab90613083565b60405180910390fd5b3273ffffffffffffffffffffffffffffffffffffffff163373ffffffffffffffffffffffffffffffffffffffff1614610722576040517f08c379a000000000000000000000000000000000000000000000000000000000815260040161071990613123565b60405180910390fd5b600a600082815260200190815260200160002060003373ffffffffffffffffffffffffffffffffffffffff1673ffffffffffffffffffffffffffffffffffffffff16815260200190815260200160002060040160019054906101000a900460ff166107c2576040517f08c379a00000000000000000000000000000000000000000000000000000000081526004016107b990613063565b60405180910390fd5b6000600a600083815260200190815260200160002060003373ffffffffffffffffffffffffffffffffffffffff1673ffffffffffffffffffffffffffffffffffffffff1681526020019081526020016000209050600080600090506000600d60008681526020019081526020016000206040518060e00160405290816000820154815260200160018201548152602001600282015481526020016003820160009054906101000a900460ff161515151581526020016003820160019054906101000a900460ff161515151581526020016004820154815260200160058201548152505090508060c00151915060018460040160006101000a81548160ff0219169083151502179055506108f260646108e4601485611c9390919063ffffffff16565b611ca990919063ffffffff16565b836108fd919061341a565b9250843373ffffffffffffffffffffffffffffffffffffffff167f34fcbac0073d7c3d388e51312faf357774904998eeb8fca628b9e6f65ee1cbf7846040516109469190613243565b60405180910390a36109583384611bcf565b505050506001808190555050565b6060600b6000838152602001908152602001600020805480602002602001604051908101604052809291908181526020016000905b82821015610a475783829060005260206000200180546109ba906135de565b80601f01602080910402602001604051908101604052809291908181526020018280546109e6906135de565b8015610a335780601f10610a0857610100808354040283529160200191610a33565b820191906000526020600020905b815481529060010190602001808311610a1657829003601f168201915b50505050508152602001906001019061099b565b505050509050919050565b610a5a610b62565b610a99576040517f08c379a0000000000000000000000000000000000000000000000000000000008152600401610a9090612fe3565b60405180910390fd5b600460009054906101000a900473ffffffffffffffffffffffffffffffffffffffff1673ffffffffffffffffffffffffffffffffffffffff163373ffffffffffffffffffffffffffffffffffffffff1614610b29576040517f08c379a0000000000000000000000000000000000000000000000000000000008152600401610b2090613203565b60405180910390fd5b610b31611cbf565b6009547faaa520fdd7d2c83061d632fa017b0432407e798818af63ea908589fceda39ab760405160405180910390a2565b60008060149054906101000a900460ff16905090565b60085481565b610b86610b62565b15610bc6576040517f08c379a0000000000000000000000000000000000000000000000000000000008152600401610bbd906130e3565b60405180910390fd5b600460009054906101000a900473ffffffffffffffffffffffffffffffffffffffff1673ffffffffffffffffffffffffffffffffffffffff163373ffffffffffffffffffffffffffffffffffffffff1614610c56576040517f08c379a0000000000000000000000000000000000000000000000000000000008152600401610c4d90613203565b60405180910390fd5b6000600d6000838152602001908152602001600020905060018160030160006101000a81548160ff021916908315150217905550817f6092323421a4a860e7644d69619f90504d467bc4d0ef357c6c17e786217500c560405160405180910390a25050565b610cc3611d60565b73ffffffffffffffffffffffffffffffffffffffff16610ce1610fae565b73ffffffffffffffffffffffffffffffffffffffff1614610d37576040517f08c379a0000000000000000000000000000000000000000000000000000000008152600401610d2e90613143565b60405180910390fd5b610d416000611d68565b565b600a602052816000526040600020602052806000526040600020600091509150508060000160009054906101000a900460ff1690806001018054610d86906135de565b80601f0160208091040260200160405190810160405280929190818152602001828054610db2906135de565b8015610dff5780601f10610dd457610100808354040283529160200191610dff565b820191906000526020600020905b815481529060010190602001808311610de257829003601f168201915b5050505050908060020154908060030154908060040160009054906101000a900460ff16908060040160019054906101000a900460ff16905086565b600d6020528060005260406000206000915090508060000154908060010154908060020154908060030160009054906101000a900460ff16908060030160019054906101000a900460ff16908060040154908060050154905087565b60095481565b610ea5610b62565b15610ee5576040517f08c379a0000000000000000000000000000000000000000000000000000000008152600401610edc906130e3565b60405180910390fd5b600460009054906101000a900473ffffffffffffffffffffffffffffffffffffffff1673ffffffffffffffffffffffffffffffffffffffff163373ffffffffffffffffffffffffffffffffffffffff1614610f75576040517f08c379a0000000000000000000000000000000000000000000000000000000008152600401610f6c90613203565b60405180910390fd5b610f7d611e2c565b6009547f68b095021b1f40fe513109f513c66692f0b3219aee674a69f4efc57badb8201d60405160405180910390a2565b60008060009054906101000a900473ffffffffffffffffffffffffffffffffffffffff16905090565b610fdf610b62565b1561101f576040517f08c379a0000000000000000000000000000000000000000000000000000000008152600401611016906130e3565b60405180910390fd5b60026001541415611065576040517f08c379a000000000000000000000000000000000000000000000000000000000815260040161105c906131e3565b60405180910390fd5b600260018190555061107633611c80565b156110b6576040517f08c379a00000000000000000000000000000000000000000000000000000000081526004016110ad90613083565b60405180910390fd5b3273ffffffffffffffffffffffffffffffffffffffff163373ffffffffffffffffffffffffffffffffffffffff1614611124576040517f08c379a000000000000000000000000000000000000000000000000000000000815260040161111b90613123565b60405180910390fd5b6009548214611168576040517f08c379a000000000000000000000000000000000000000000000000000000000815260040161115f90613103565b60405180910390fd5b61117182611ecf565b6111b0576040517f08c379a00000000000000000000000000000000000000000000000000000000081526004016111a790613003565b60405180910390fd5b600854600c6000848152602001908152602001600020805490501061120a576040517f08c379a000000000000000000000000000000000000000000000000000000000815260040161120190613023565b60405180910390fd5b60055434101561124f576040517f08c379a000000000000000000000000000000000000000000000000000000000815260040161124690613163565b60405180910390fd5b60003490506000600d6000858152602001908152602001600020905081816001015461127b919061341a565b81600101819055506000600a600086815260200190815260200160002060003373ffffffffffffffffffffffffffffffffffffffff1673ffffffffffffffffffffffffffffffffffffffff168152602001908152602001600020905060008160000160006101000a81548160ff02191690836000811115611325577f4e487b7100000000000000000000000000000000000000000000000000000000600052602160045260246000fd5b0217905550838160010190805190602001906113429291906123c1565b5082816002018190555060008160030181905550600c6000868152602001908152602001600020339080600181540180825580915050600190039060005260206000200160009091909190916101000a81548173ffffffffffffffffffffffffffffffffffffffff021916908373ffffffffffffffffffffffffffffffffffffffff160217905550600b6000868152602001908152602001600020849080600181540180825580915050600190039060005260206000200160009091909190915090805190602001906114169291906123c1565b50843373ffffffffffffffffffffffffffffffffffffffff167f951dacd3b155e0d21ef994d241b3ccf55314be739f555c6575238f39a5a02f318560405161145e9190613243565b60405180910390a3505050600180819055505050565b61147c610b62565b156114bc576040517f08c379a00000000000000000000000000000000000000000000000000000000081526004016114b3906130e3565b60405180910390fd5b600460009054906101000a900473ffffffffffffffffffffffffffffffffffffffff1673ffffffffffffffffffffffffffffffffffffffff163373ffffffffffffffffffffffffffffffffffffffff161461154c576040517f08c379a000000000000000000000000000000000000000000000000000000000815260040161154390613203565b60405180910390fd5b6000600954905061155c81611f04565b50565b611567610b62565b156115a7576040517f08c379a000000000000000000000000000000000000000000000000000000000815260040161159e906130e3565b60405180910390fd5b600460009054906101000a900473ffffffffffffffffffffffffffffffffffffffff1673ffffffffffffffffffffffffffffffffffffffff163373ffffffffffffffffffffffffffffffffffffffff1614611637576040517f08c379a000000000000000000000000000000000000000000000000000000000815260040161162e90613203565b60405180910390fd5b6000600d6000838152602001908152602001600020905060018160030160016101000a81548160ff021916908315150217905550600160095461167a919061341a565b6009819055506000600954905061169083611f8f565b61169981611f04565b505050565b6116a6611d60565b73ffffffffffffffffffffffffffffffffffffffff166116c4610fae565b73ffffffffffffffffffffffffffffffffffffffff161461171a576040517f08c379a000000000000000000000000000000000000000000000000000000000815260040161171190613143565b60405180910390fd5b61174533828473ffffffffffffffffffffffffffffffffffffffff166120ce9092919063ffffffff16565b8173ffffffffffffffffffffffffffffffffffffffff167f14f11966a996e0629572e51064726d2057a80fbd34efc066682c06a71dbb6e988260405161178b9190613243565b60405180910390a25050565b61179f610b62565b156117df576040517f08c379a00000000000000000000000000000000000000000000000000000000081526004016117d6906130e3565b60405180910390fd5b600460009054906101000a900473ffffffffffffffffffffffffffffffffffffffff1673ffffffffffffffffffffffffffffffffffffffff163373ffffffffffffffffffffffffffffffffffffffff161461186f576040517f08c379a000000000000000000000000000000000000000000000000000000000815260040161186690613203565b60405180910390fd5b6000600a600085815260200190815260200160002060008473ffffffffffffffffffffffffffffffffffffffff1673ffffffffffffffffffffffffffffffffffffffff1681526020019081526020016000209050818160040160016101000a81548160ff02191690831515021790555050505050565b6118ed611d60565b73ffffffffffffffffffffffffffffffffffffffff1661190b610fae565b73ffffffffffffffffffffffffffffffffffffffff1614611961576040517f08c379a000000000000000000000000000000000000000000000000000000000815260040161195890613143565b60405180910390fd5b600073ffffffffffffffffffffffffffffffffffffffff168173ffffffffffffffffffffffffffffffffffffffff1614156119d1576040517f08c379a00000000000000000000000000000000000000000000000000000000081526004016119c890613043565b60405180910390fd5b6119da81611d68565b50565b6119e5610b62565b15611a25576040517f08c379a0000000000000000000000000000000000000000000000000000000008152600401611a1c906130e3565b60405180910390fd5b600460009054906101000a900473ffffffffffffffffffffffffffffffffffffffff1673ffffffffffffffffffffffffffffffffffffffff163373ffffffffffffffffffffffffffffffffffffffff1614611ab5576040517f08c379a0000000000000000000000000000000000000000000000000000000008152600401611aac90613203565b60405180910390fd5b6000600a600085815260200190815260200160002060008473ffffffffffffffffffffffffffffffffffffffff1673ffffffffffffffffffffffffffffffffffffffff168152602001908152602001600020905081816003018190555050505050565b6060600c6000838152602001908152602001600020805480602002602001604051908101604052809291908181526020018280548015611bad57602002820191906000526020600020905b8160009054906101000a900473ffffffffffffffffffffffffffffffffffffffff1673ffffffffffffffffffffffffffffffffffffffff1681526020019060010190808311611b63575b50505050509050919050565b6001816000016000828254019250508190555050565b60008273ffffffffffffffffffffffffffffffffffffffff1682604051611bf590612ea1565b60006040518083038185875af1925050503d8060008114611c32576040519150601f19603f3d011682016040523d82523d6000602084013e611c37565b606091505b5050905080611c7b576040517f08c379a0000000000000000000000000000000000000000000000000000000008152600401611c72906131a3565b60405180910390fd5b505050565b600080823b905060008111915050919050565b60008183611ca191906134a1565b905092915050565b60008183611cb79190613470565b905092915050565b611cc7610b62565b611d06576040517f08c379a0000000000000000000000000000000000000000000000000000000008152600401611cfd90612fe3565b60405180910390fd5b60008060146101000a81548160ff0219169083151502179055507f5db9ee0a495bf2e6ff9c91a7834c1ba4fdd244a5e8aa4e537bd38aeae4b073aa611d49611d60565b604051611d569190612eb6565b60405180910390a1565b600033905090565b60008060009054906101000a900473ffffffffffffffffffffffffffffffffffffffff169050816000806101000a81548173ffffffffffffffffffffffffffffffffffffffff021916908373ffffffffffffffffffffffffffffffffffffffff1602179055508173ffffffffffffffffffffffffffffffffffffffff168173ffffffffffffffffffffffffffffffffffffffff167f8be0079c531659141344cd1fd0a4f28419497f9722a3daafe3b4186f6b6457e060405160405180910390a35050565b611e34610b62565b15611e74576040517f08c379a0000000000000000000000000000000000000000000000000000000008152600401611e6b906130e3565b60405180910390fd5b6001600060146101000a81548160ff0219169083151502179055507f62e78cea01bee320cd4e420270b5ea74000d11b0c9f74754ebdbfc544b05a258611eb8611d60565b604051611ec59190612eb6565b60405180910390a1565b600060011515600d600084815260200190815260200160002060030160009054906101000a900460ff16151514159050919050565b6000600d6000838152602001908152602001600020905081816000018190555060008160030160006101000a81548160ff02191690831515021790555060008160030160016101000a81548160ff021916908315150217905550817f113d32d0b7aec15a8c7f50af4cb42f4695e5b95524ed69519ac88d6c1f1f40f660405160405180910390a25050565b6000600d600083815260200190815260200160002060040154148015611fcb57506000600d600083815260200190815260200160002060050154145b61200a576040517f08c379a0000000000000000000000000000000000000000000000000000000008152600401612001906130c3565b60405180910390fd5b6000600d60008381526020019081526020016000209050600080600083600101549250612710600654856001015461204291906134a1565b61204c9190613470565b915081846001015461205e91906134fb565b90508284600401819055508084600501819055508160076000828254612084919061341a565b92505081905550847f6dfdfcb09c8804d0058826cd2539f1acfbe3cb887c9be03d928035bce0f1a58d8483856040516120bf9392919061325e565b60405180910390a25050505050565b61214f8363a9059cbb60e01b84846040516024016120ed929190612ed1565b604051602081830303815290604052907bffffffffffffffffffffffffffffffffffffffffffffffffffffffff19166020820180517bffffffffffffffffffffffffffffffffffffffffffffffffffffffff8381831617835250505050612154565b505050565b60006121b6826040518060400160405280602081526020017f5361666545524332303a206c6f772d6c6576656c2063616c6c206661696c65648152508573ffffffffffffffffffffffffffffffffffffffff1661221b9092919063ffffffff16565b905060008151111561221657808060200190518101906121d69190612585565b612215576040517f08c379a000000000000000000000000000000000000000000000000000000000815260040161220c906131c3565b60405180910390fd5b5b505050565b606061222a8484600085612233565b90509392505050565b606082471015612278576040517f08c379a000000000000000000000000000000000000000000000000000000000815260040161226f906130a3565b60405180910390fd5b61228185612347565b6122c0576040517f08c379a00000000000000000000000000000000000000000000000000000000081526004016122b790613183565b60405180910390fd5b6000808673ffffffffffffffffffffffffffffffffffffffff1685876040516122e99190612e8a565b60006040518083038185875af1925050503d8060008114612326576040519150601f19603f3d011682016040523d82523d6000602084013e61232b565b606091505b509150915061233b82828661235a565b92505050949350505050565b600080823b905060008111915050919050565b6060831561236a578290506123ba565b60008351111561237d5782518084602001fd5b816040517f08c379a00000000000000000000000000000000000000000000000000000000081526004016123b19190612fc1565b60405180910390fd5b9392505050565b8280546123cd906135de565b90600052602060002090601f0160209004810192826123ef5760008555612436565b82601f1061240857805160ff1916838001178555612436565b82800160010185558215612436579182015b8281111561243557825182559160200191906001019061241a565b5b5090506124439190612447565b5090565b5b80821115612460576000816000905550600101612448565b5090565b600061247761247284613335565b613304565b90508281526020810184848401111561248f57600080fd5b61249a84828561359c565b509392505050565b6000813590506124b181613720565b92915050565b6000813590506124c681613737565b92915050565b6000815190506124db81613737565b92915050565b600082601f8301126124f257600080fd5b8135612502848260208601612464565b91505092915050565b60008135905061251a8161374e565b92915050565b60006020828403121561253257600080fd5b6000612540848285016124a2565b91505092915050565b6000806040838503121561255c57600080fd5b600061256a858286016124a2565b925050602061257b8582860161250b565b9150509250929050565b60006020828403121561259757600080fd5b60006125a5848285016124cc565b91505092915050565b6000602082840312156125c057600080fd5b60006125ce8482850161250b565b91505092915050565b600080604083850312156125ea57600080fd5b60006125f88582860161250b565b9250506020612609858286016124a2565b9150509250929050565b60008060006060848603121561262857600080fd5b60006126368682870161250b565b9350506020612647868287016124a2565b9250506040612658868287016124b7565b9150509250925092565b60008060006060848603121561267757600080fd5b60006126858682870161250b565b9350506020612696868287016124a2565b92505060406126a78682870161250b565b9150509250925092565b600080604083850312156126c457600080fd5b60006126d28582860161250b565b925050602083013567ffffffffffffffff8111156126ef57600080fd5b6126fb858286016124e1565b9150509250929050565b60006127118383612731565b60208301905092915050565b60006127298383612871565b905092915050565b61273a8161352f565b82525050565b6127498161352f565b82525050565b600061275a82613385565b61276481856133cb565b935061276f83613365565b8060005b838110156127a05781516127878882612705565b9750612792836133b1565b925050600181019050612773565b5085935050505092915050565b60006127b882613390565b6127c281856133dc565b9350836020820285016127d485613375565b8060005b8581101561281057848403895281516127f1858261271d565b94506127fc836133be565b925060208a019950506001810190506127d8565b50829750879550505050505092915050565b61282b81613541565b82525050565b600061283c8261339b565b61284681856133ed565b93506128568185602086016135ab565b80840191505092915050565b61286b8161358a565b82525050565b600061287c826133a6565b61288681856133f8565b93506128968185602086016135ab565b61289f816136fb565b840191505092915050565b60006128b5826133a6565b6128bf8185613409565b93506128cf8185602086016135ab565b6128d8816136fb565b840191505092915050565b60006128f0601483613409565b91507f5061757361626c653a206e6f74207061757365640000000000000000000000006000830152602082019050919050565b6000612930601883613409565b91507f546f75726e616d656e74206e6f7420656e74657261626c6500000000000000006000830152602082019050919050565b6000612970601883613409565b91507f5468697320746f75726e616d656e742069732066756c6c2e00000000000000006000830152602082019050919050565b60006129b0602683613409565b91507f4f776e61626c653a206e6577206f776e657220697320746865207a65726f206160008301527f64647265737300000000000000000000000000000000000000000000000000006020830152604082019050919050565b6000612a16601f83613409565b91507f596f7520646964206e6f7420706c61636520696e20746865206d6f6e65792e006000830152602082019050919050565b6000612a56601483613409565b91507f436f6e7472616374206e6f7420616c6c6f7765640000000000000000000000006000830152602082019050919050565b6000612a96602683613409565b91507f416464726573733a20696e73756666696369656e742062616c616e636520666f60008301527f722063616c6c00000000000000000000000000000000000000000000000000006020830152604082019050919050565b6000612afc601283613409565b91507f526577617264732063616c63756c6174656400000000000000000000000000006000830152602082019050919050565b6000612b3c601083613409565b91507f5061757361626c653a20706175736564000000000000000000000000000000006000830152602082019050919050565b6000612b7c601783613409565b91507f456e74727920697320746f6f206561726c792f6c6174650000000000000000006000830152602082019050919050565b6000612bbc601a83613409565b91507f50726f787920636f6e7472616374206e6f7420616c6c6f7765640000000000006000830152602082019050919050565b6000612bfc602083613409565b91507f4f776e61626c653a2063616c6c6572206973206e6f7420746865206f776e65726000830152602082019050919050565b6000612c3c602e83613409565b91507f456e7472792066656520616d6f756e74206d757374206265206772656174657260008301527f207468616e20656e7472794665650000000000000000000000000000000000006020830152604082019050919050565b6000612ca26000836133ed565b9150600082019050919050565b6000612cbc601d83613409565b91507f416464726573733a2063616c6c20746f206e6f6e2d636f6e74726163740000006000830152602082019050919050565b6000612cfc602383613409565b91507f5472616e7366657248656c7065723a204554485f5452414e534645525f46414960008301527f4c454400000000000000000000000000000000000000000000000000000000006020830152604082019050919050565b6000612d62602a83613409565b91507f5361666545524332303a204552433230206f7065726174696f6e20646964206e60008301527f6f742073756363656564000000000000000000000000000000000000000000006020830152604082019050919050565b6000612dc8601f83613409565b91507f5265656e7472616e637947756172643a207265656e7472616e742063616c6c006000830152602082019050919050565b6000612e08600c83613409565b91507f4e6f74206f70657261746f7200000000000000000000000000000000000000006000830152602082019050919050565b6000612e48600983613409565b91507f4e6f742061646d696e00000000000000000000000000000000000000000000006000830152602082019050919050565b612e8481613580565b82525050565b6000612e968284612831565b915081905092915050565b6000612eac82612c95565b9150819050919050565b6000602082019050612ecb6000830184612740565b92915050565b6000604082019050612ee66000830185612740565b612ef36020830184612e7b565b9392505050565b60006020820190508181036000830152612f14818461274f565b905092915050565b60006020820190508181036000830152612f3681846127ad565b905092915050565b6000602082019050612f536000830184612822565b92915050565b600060c082019050612f6e6000830189612862565b8181036020830152612f8081886128aa565b9050612f8f6040830187612e7b565b612f9c6060830186612e7b565b612fa96080830185612822565b612fb660a0830184612822565b979650505050505050565b60006020820190508181036000830152612fdb81846128aa565b905092915050565b60006020820190508181036000830152612ffc816128e3565b9050919050565b6000602082019050818103600083015261301c81612923565b9050919050565b6000602082019050818103600083015261303c81612963565b9050919050565b6000602082019050818103600083015261305c816129a3565b9050919050565b6000602082019050818103600083015261307c81612a09565b9050919050565b6000602082019050818103600083015261309c81612a49565b9050919050565b600060208201905081810360008301526130bc81612a89565b9050919050565b600060208201905081810360008301526130dc81612aef565b9050919050565b600060208201905081810360008301526130fc81612b2f565b9050919050565b6000602082019050818103600083015261311c81612b6f565b9050919050565b6000602082019050818103600083015261313c81612baf565b9050919050565b6000602082019050818103600083015261315c81612bef565b9050919050565b6000602082019050818103600083015261317c81612c2f565b9050919050565b6000602082019050818103600083015261319c81612caf565b9050919050565b600060208201905081810360008301526131bc81612cef565b9050919050565b600060208201905081810360008301526131dc81612d55565b9050919050565b600060208201905081810360008301526131fc81612dbb565b9050919050565b6000602082019050818103600083015261321c81612dfb565b9050919050565b6000602082019050818103600083015261323c81612e3b565b9050919050565b60006020820190506132586000830184612e7b565b92915050565b60006060820190506132736000830186612e7b565b6132806020830185612e7b565b61328d6040830184612e7b565b949350505050565b600060e0820190506132aa600083018a612e7b565b6132b76020830189612e7b565b6132c46040830188612e7b565b6132d16060830187612822565b6132de6080830186612822565b6132eb60a0830185612e7b565b6132f860c0830184612e7b565b98975050505050505050565b6000604051905081810181811067ffffffffffffffff8211171561332b5761332a6136cc565b5b8060405250919050565b600067ffffffffffffffff8211156133505761334f6136cc565b5b601f19601f8301169050602081019050919050565b6000819050602082019050919050565b6000819050602082019050919050565b600081519050919050565b600081519050919050565b600081519050919050565b600081519050919050565b6000602082019050919050565b6000602082019050919050565b600082825260208201905092915050565b600082825260208201905092915050565b600081905092915050565b600082825260208201905092915050565b600082825260208201905092915050565b600061342582613580565b915061343083613580565b9250827fffffffffffffffffffffffffffffffffffffffffffffffffffffffffffffffff0382111561346557613464613610565b5b828201905092915050565b600061347b82613580565b915061348683613580565b9250826134965761349561363f565b5b828204905092915050565b60006134ac82613580565b91506134b783613580565b9250817fffffffffffffffffffffffffffffffffffffffffffffffffffffffffffffffff04831182151516156134f0576134ef613610565b5b828202905092915050565b600061350682613580565b915061351183613580565b92508282101561352457613523613610565b5b828203905092915050565b600061353a82613560565b9050919050565b60008115159050919050565b600081905061355b8261370c565b919050565b600073ffffffffffffffffffffffffffffffffffffffff82169050919050565b6000819050919050565b60006135958261354d565b9050919050565b82818337600083830152505050565b60005b838110156135c95780820151818401526020810190506135ae565b838111156135d8576000848401525b50505050565b600060028204905060018216806135f657607f821691505b6020821081141561360a5761360961369d565b5b50919050565b7f4e487b7100000000000000000000000000000000000000000000000000000000600052601160045260246000fd5b7f4e487b7100000000000000000000000000000000000000000000000000000000600052601260045260246000fd5b7f4e487b7100000000000000000000000000000000000000000000000000000000600052602160045260246000fd5b7f4e487b7100000000000000000000000000000000000000000000000000000000600052602260045260246000fd5b7f4e487b7100000000000000000000000000000000000000000000000000000000600052604160045260246000fd5b6000601f19601f8301169050919050565b6001811061371d5761371c61366e565b5b50565b6137298161352f565b811461373457600080fd5b50565b61374081613541565b811461374b57600080fd5b50565b61375781613580565b811461376257600080fd5b5056fea2646970667358221220fd54555678277f4f84c57b2798e3d6530a3c898dbd3684811d4babfb18d843f964736f6c63430008000033",
  "linkReferences": {},
  "deployedLinkReferences": {}
}